{
  "transactions": [
    {
      "hash": "0x7742a274555a52a3636ab0e45f8a1ba45b5911243a012629131d95171cc57a39",
      "transactionType": "CALL",
      "contractName": null,
      "contractAddress": "0x4a46b5b96fa7767370281ba469dfd5ff59c96ec0",
      "function": "approve(address,uint256)",
      "arguments": [
        "0x2E70b8d4b4dD88F6bA95dC246035217e8292CFEE",
        "200000000000000000000000000"
      ],
      "transaction": {
        "from": "0x57f4c757db5701a9063012c80bce987a6a0558a6",
        "to": "0x4a46b5b96fa7767370281ba469dfd5ff59c96ec0",
        "gas": "0xaaab",
        "value": "0x0",
        "input": "0x095ea7b30000000000000000000000002e70b8d4b4dd88f6ba95dc246035217e8292cfee000000000000000000000000000000000000000000a56fa5b99019a5c8000000",
        "nonce": "0x2fd",
        "chainId": "0x61"
      },
      "additionalContracts": [],
      "isFixedGasLimit": false
    }
  ],
  "receipts": [
    {
      "status": "0x1",
      "cumulativeGasUsed": "0x74b3",
      "logs": [
        {
          "address": "0x4a46b5b96fa7767370281ba469dfd5ff59c96ec0",
          "topics": [
            "0x8c5be1e5ebec7d5bd14f71427d1e84f3dd0314c0f7b2291e5b200ac8c7c3b925",
            "0x00000000000000000000000057f4c757db5701a9063012c80bce987a6a0558a6",
            "0x0000000000000000000000002e70b8d4b4dd88f6ba95dc246035217e8292cfee"
          ],
          "data": "0x000000000000000000000000000000000000000000a56fa5b99019a5c8000000",
          "blockHash": "0xc2b5d3389276e13866fcef169d2b1961fca958c3cede52c331bc48732f6ad5a4",
          "blockNumber": "0x39ab5db",
          "transactionHash": "0x7742a274555a52a3636ab0e45f8a1ba45b5911243a012629131d95171cc57a39",
          "transactionIndex": "0x0",
          "logIndex": "0x0",
          "removed": false
        }
      ],
      "logsBloom": "0x00000000000000000000000000000000000000000000000000000000000000000000000000000000000000000000000000000000000400000000000080200000000000000000000000000000000000000000000000000000000000000000000000000000000000002080000000000000000000000000000000000000000000000000000000000000000000000000000400000000000000000000000000000000020000000000000000000000000000000000000000000000008000000000000002000000000000000000000000000000000000000000000000000000000000000010000000000000000000000010000000000000000000000000000000000020",
      "type": "0x2",
      "transactionHash": "0x7742a274555a52a3636ab0e45f8a1ba45b5911243a012629131d95171cc57a39",
      "transactionIndex": "0x0",
      "blockHash": "0xc2b5d3389276e13866fcef169d2b1961fca958c3cede52c331bc48732f6ad5a4",
      "blockNumber": "0x39ab5db",
      "gasUsed": "0x74b3",
      "effectiveGasPrice": "0x68e7780",
      "from": "0x57f4c757db5701a9063012c80bce987a6a0558a6",
      "to": "0x4a46b5b96fa7767370281ba469dfd5ff59c96ec0",
      "contractAddress": null
    }
  ],
  "libraries": [],
  "pending": [],
  "returns": {},
  "timestamp": 1754187299532,
  "chain": 97,
  "commit": "7a98c6b"
}