{
  "transactions": [
    {
      "hash": "0xfcb68ef6abfca94c638e48db240faa9aaba076d17971eb3cfe3df60dc32cf57c",
      "transactionType": "CALL",
      "contractName": null,
      "contractAddress": "0x2e70b8d4b4dd88f6ba95dc246035217e8292cfee",
      "function": "swap(address,address,uint256)",
      "arguments": [
        "0x4a46B5B96FA7767370281Ba469dfd5Ff59c96Ec0",
        "0x3e783B3c703F13f79A236632021d92e6F7b39dE8",
        "1000000000000000000"
      ],
      "transaction": {
        "from": "0x57f4c757db5701a9063012c80bce987a6a0558a6",
        "to": "0x2e70b8d4b4dd88f6ba95dc246035217e8292cfee",
        "gas": "0x2f690",
        "value": "0x0",
        "input": "0xdf791e500000000000000000000000004a46b5b96fa7767370281ba469dfd5ff59c96ec00000000000000000000000003e783b3c703f13f79a236632021d92e6f7b39de80000000000000000000000000000000000000000000000000de0b6b3a7640000",
        "nonce": "0x2fe",
        "chainId": "0x61"
      },
      "additionalContracts": [],
      "isFixedGasLimit": false
    }
  ],
  "receipts": [
    {
      "status": "0x1",
      "cumulativeGasUsed": "0x22530",
      "logs": [
        {
          "address": "0x4a46b5b96fa7767370281ba469dfd5ff59c96ec0",
          "topics": [
            "0xddf252ad1be2c89b69c2b068fc378daa952ba7f163c4a11628f55a4df523b3ef",
            "0x00000000000000000000000057f4c757db5701a9063012c80bce987a6a0558a6",
            "0x0000000000000000000000002e70b8d4b4dd88f6ba95dc246035217e8292cfee"
          ],
          "data": "0x0000000000000000000000000000000000000000000000000de0b6b3a7640000",
          "blockHash": "0xf39d0ebb450cf431167407f07795fbd46280d96a3238d3675e899ded6c6ebac8",
          "blockNumber": "0x39ab863",
          "transactionHash": "0xfcb68ef6abfca94c638e48db240faa9aaba076d17971eb3cfe3df60dc32cf57c",
          "transactionIndex": "0x0",
          "logIndex": "0x0",
          "removed": false
        },
        {
          "address": "0x4a46b5b96fa7767370281ba469dfd5ff59c96ec0",
          "topics": [
            "0x8c5be1e5ebec7d5bd14f71427d1e84f3dd0314c0f7b2291e5b200ac8c7c3b925",
            "0x0000000000000000000000002e70b8d4b4dd88f6ba95dc246035217e8292cfee",
            "0x000000000000000000000000d99d1c33f9fc3444f8101754abc46c52416550d1"
          ],
          "data": "0x0000000000000000000000000000000000000000000000000de0b6b3a7640000",
          "blockHash": "0xf39d0ebb450cf431167407f07795fbd46280d96a3238d3675e899ded6c6ebac8",
          "blockNumber": "0x39ab863",
          "transactionHash": "0xfcb68ef6abfca94c638e48db240faa9aaba076d17971eb3cfe3df60dc32cf57c",
          "transactionIndex": "0x0",
          "logIndex": "0x1",
          "removed": false
        },
        {
          "address": "0x4a46b5b96fa7767370281ba469dfd5ff59c96ec0",
          "topics": [
            "0xddf252ad1be2c89b69c2b068fc378daa952ba7f163c4a11628f55a4df523b3ef",
            "0x0000000000000000000000002e70b8d4b4dd88f6ba95dc246035217e8292cfee",
            "0x000000000000000000000000437fcde988e222f8274fc5ee44ebaf781772daac"
          ],
          "data": "0x0000000000000000000000000000000000000000000000000de0b6b3a7640000",
          "blockHash": "0xf39d0ebb450cf431167407f07795fbd46280d96a3238d3675e899ded6c6ebac8",
          "blockNumber": "0x39ab863",
          "transactionHash": "0xfcb68ef6abfca94c638e48db240faa9aaba076d17971eb3cfe3df60dc32cf57c",
          "transactionIndex": "0x0",
          "logIndex": "0x2",
          "removed": false
        },
        {
          "address": "0x3e783b3c703f13f79a236632021d92e6f7b39de8",
          "topics": [
            "0xddf252ad1be2c89b69c2b068fc378daa952ba7f163c4a11628f55a4df523b3ef",
            "0x000000000000000000000000437fcde988e222f8274fc5ee44ebaf781772daac",
            "0x00000000000000000000000057f4c757db5701a9063012c80bce987a6a0558a6"
          ],
          "data": "0x00000000000000000000000000000000000000000000000567a05cabef7612a1",
          "blockHash": "0xf39d0ebb450cf431167407f07795fbd46280d96a3238d3675e899ded6c6ebac8",
          "blockNumber": "0x39ab863",
          "transactionHash": "0xfcb68ef6abfca94c638e48db240faa9aaba076d17971eb3cfe3df60dc32cf57c",
          "transactionIndex": "0x0",
          "logIndex": "0x3",
          "removed": false
        },
        {
          "address": "0x437fcde988e222f8274fc5ee44ebaf781772daac",
          "topics": [
            "0x1c411e9a96e071241c2f21f7726b17ae89e3cab4c78be50e062b03a9fffbbad1"
          ],
          "data": "0x00000000000000000000000000000000000000000000d3a47b3e470c0e50c9a600000000000000000000000000000000000000000000021e65edc97bf4c9fed8",
          "blockHash": "0xf39d0ebb450cf431167407f07795fbd46280d96a3238d3675e899ded6c6ebac8",
          "blockNumber": "0x39ab863",
          "transactionHash": "0xfcb68ef6abfca94c638e48db240faa9aaba076d17971eb3cfe3df60dc32cf57c",
          "transactionIndex": "0x0",
          "logIndex": "0x4",
          "removed": false
        },
        {
          "address": "0x437fcde988e222f8274fc5ee44ebaf781772daac",
          "topics": [
            "0xd78ad95fa46c994b6551d0da85fc275fe613ce37657fb8d5e3d130840159d822",
            "0x000000000000000000000000d99d1c33f9fc3444f8101754abc46c52416550d1",
            "0x00000000000000000000000057f4c757db5701a9063012c80bce987a6a0558a6"
          ],
          "data": "0x00000000000000000000000000000000000000000000000000000000000000000000000000000000000000000000000000000000000000000de0b6b3a764000000000000000000000000000000000000000000000000000567a05cabef7612a10000000000000000000000000000000000000000000000000000000000000000",
          "blockHash": "0xf39d0ebb450cf431167407f07795fbd46280d96a3238d3675e899ded6c6ebac8",
          "blockNumber": "0x39ab863",
          "transactionHash": "0xfcb68ef6abfca94c638e48db240faa9aaba076d17971eb3cfe3df60dc32cf57c",
          "transactionIndex": "0x0",
          "logIndex": "0x5",
          "removed": false
        }
      ],
      "logsBloom": "0x00200000000000000000000080000000000040000000000000000000000004000000002000000000000000000000000000080000000400000000000080200000004000000000000000000008000000200000000000000000000000000000000000000000000000002080000800000000000000000000000000000010040000000000000000000000000010000000000400000000000000080000004000000000020000000000000020000000000000000000000000000000008000400000000002002002000000000000000000000000000000000000001000000000000000000010000000002000000000000010000000000000000000000000000000000020",
      "type": "0x2",
      "transactionHash": "0xfcb68ef6abfca94c638e48db240faa9aaba076d17971eb3cfe3df60dc32cf57c",
      "transactionIndex": "0x0",
      "blockHash": "0xf39d0ebb450cf431167407f07795fbd46280d96a3238d3675e899ded6c6ebac8",
      "blockNumber": "0x39ab863",
      "gasUsed": "0x22530",
      "effectiveGasPrice": "0x5f5e100",
      "from": "0x57f4c757db5701a9063012c80bce987a6a0558a6",
      "to": "0x2e70b8d4b4dd88f6ba95dc246035217e8292cfee",
      "contractAddress": null
    }
  ],
  "libraries": [],
  "pending": [],
  "returns": {},
  "timestamp": 1754187786373,
  "chain": 97,
  "commit": "7a98c6b"
}