{
  "transactions": [
    {
      "hash": "0x113547c049168e26089c1214a898388cc3c3dc4ca66495c6a1d22d7c7e1a7ff2",
      "transactionType": "CALL",
      "contractName": null,
      "contractAddress": "0x4a46b5b96fa7767370281ba469dfd5ff59c96ec0",
      "function": "transfer(address,uint256)",
      "arguments": [
        "0xb095fDF928C74d1f426A9118e649da2b75f0982a",
        "10000000000000000000"
      ],
      "transaction": {
        "from": "0x57f4c757db5701a9063012c80bce987a6a0558a6",
        "to": "0x4a46b5b96fa7767370281ba469dfd5ff59c96ec0",
        "gas": "0xbd22",
        "value": "0x0",
        "input": "0xa9059cbb000000000000000000000000b095fdf928c74d1f426a9118e649da2b75f0982a0000000000000000000000000000000000000000000000008ac7230489e80000",
        "nonce": "0x2fc",
        "chainId": "0x61"
      },
      "additionalContracts": [],
      "isFixedGasLimit": false
    }
  ],
  "receipts": [
    {
      "status": "0x1",
      "cumulativeGasUsed": "0x2b1a8",
      "logs": [
        {
          "address": "0x4a46b5b96fa7767370281ba469dfd5ff59c96ec0",
          "topics": [
            "0xddf252ad1be2c89b69c2b068fc378daa952ba7f163c4a11628f55a4df523b3ef",
            "0x00000000000000000000000057f4c757db5701a9063012c80bce987a6a0558a6",
            "0x000000000000000000000000b095fdf928c74d1f426a9118e649da2b75f0982a"
          ],
          "data": "0x0000000000000000000000000000000000000000000000008ac7230489e80000",
          "blockHash": "0xaa43d3cef83932db326c9d045a11830f82274a9a6cf635919f3d3f7a3645edea",
          "blockNumber": "0x39ab38a",
          "transactionHash": "0x113547c049168e26089c1214a898388cc3c3dc4ca66495c6a1d22d7c7e1a7ff2",
          "transactionIndex": "0x1",
          "logIndex": "0x4",
          "removed": false
        }
      ],
      "logsBloom": "0x00000000000000000000000000000000000000000000000000000000000000000000000000000000000000000000000000000000000000000000000080000000000000000000000000000008000000000000000000000000000000000000000000000000000000002000000000000000000000000000000000000010000000000000000000000000000000000000000400000010000000000000000000000000000000000000000000000000000000000000000000000000008000000000000002000002000400000000000000000000000000000000000000000000000000000000000000000000000000000000000000002000000000000000000000000020",
      "type": "0x2",
      "transactionHash": "0x113547c049168e26089c1214a898388cc3c3dc4ca66495c6a1d22d7c7e1a7ff2",
      "transactionIndex": "0x1",
      "blockHash": "0xaa43d3cef83932db326c9d045a11830f82274a9a6cf635919f3d3f7a3645edea",
      "blockNumber": "0x39ab38a",
      "gasUsed": "0x88ef",
      "effectiveGasPrice": "0x5f5e100",
      "from": "0x57f4c757db5701a9063012c80bce987a6a0558a6",
      "to": "0x4a46b5b96fa7767370281ba469dfd5ff59c96ec0",
      "contractAddress": null
    }
  ],
  "libraries": [],
  "pending": [],
  "returns": {},
  "timestamp": 1754186854164,
  "chain": 97,
  "commit": "7a98c6b"
}